:0200000480007A
:100000006F00000B1300000013000000130000003D
:100010001300000013000000130000001300000094
:10002000232E11FE232C51FE232A61FE232871FE6C
:100030002326A1FE2324B1FE2322C1FE2320D1FECC
:10004000232EE1FC232CF1FC232A01FD232811FDA2
:100050002326C1FD2324D1FD2322E1FD2320F1FD30
:10006000130101FCEF00C0668320C10383228103DA
:1000700003234103832301030325C1028325810256
:1000800003264102832601020327C1018327810140
:100090000328410183280101032EC100832E810022
:1000A000032F4100832F010013010104730020304E
:1000B00097110000938101F4138101A3170500003B
:1000C00013054573938541826308B500232005001D
:1000D000130545006FF05FFF17050000130545711C
:1000E0001301C1FF9705000093858570630EB5006D
:1000F00083260500130545002320A100E7800600A4
:10010000032501006FF01FFE1301410037150000A9
:1001100013050588731045303725000013058580C9
:0C01200073100530EF00C0246F000000D9
:10012C00130101FE232E8100130401022326A4FED9
:10013C008327C4FE23A007008327C4FE23A4070043
:10014C00130000000324C1011301010267800000A9
:10015C00130101FE232E8100130401022326A4FEA9
:10016C00130000000324C101130101026780000089
:10017C00130101FE232E8100130401022326A4FE89
:10018C008327C4FE23A207008327C4FE1307F0FFB6
:10019C0023A0E700130000000324C1011301010296
:1001AC0067800000130101FE232E8100130401025D
:1001BC002326A4FE8327C4FE83A7470093D70701F9
:1001CC0093F7F70F138507000324C10113010102F4
:1001DC0067800000130101FE232E8100130401022D
:1001EC002326A4FE8327C4FE83A7470093D7870149
:1001FC00138507000324C10113010102678000006D
:10020C00130101FE232E1100232C81001304010283
:10021C002326A4FE2324B4FE130000000325C4FEF1
:10022C00EFF05FF893070500E38A07FE8327C4FE0F
:10023C00032784FE23A0E700130000008320C101E4
:10024C00032481011301010267800000130101FEE8
:10025C00232E8100130401022326A4FE2324B4FEC2
:10026C00832784FE03A7C7008327C4FE23A4E700CB
:10027C00832784FE83A707001387F7FF832784FE59
:10028C0083A74700939787003367F700832784FE83
:10029C0083A78700939707013367F7008327C4FE72
:1002AC0023A6E700130000000324C101130101027F
:1002BC0067800000130101FE232E8100130401024C
:1002CC0093070500A307F4FEB70701F00347F4FEFC
:1002DC0023A0E700130000000324C1011301010255
:1002EC0067800000130101FE232E1100232C8100D6
:1002FC00130401022326A4FE6F00C0018327C4FE51
:10030C00138717002326E4FE83C707001385070015
:10031C00EFF05FFA8327C4FE83C70700E39007FE64
:10032C00130000008320C101032481011301010289
:10033C0067800000130101FF232611002324810094
:10034C0013040101B70700801385077EEFF09FF9B6
:10035C00130000008320C10003248100130101015C
:10036C0067800000130101FE232E1100232C810055
:10037C0013040102B70700F01307F00023A4E700F1
:10038C00B70700F023A2070023AE0180232604FE4A
:10039C008327C4FE138717002326E4FE37470F007C
:1003AC00130707246398E702B707009003A7070019
:1003BC00B717000093877719631EF7003707009073
:1003CC0023ACE18083A7818137210080930000005A
:1003DC0067800700B70701F083A7470093D7870111
:1003EC00E38807FA232604FEB70700F003A74700AB
:1003FC00B70700F01347270023A2E70083A7C181AA
:10040C0063980700EFF01FF31307100023AEE18091
:10041C0003A7C181930710006310F702B707008090
:10042C001307F0FF23ACE77E1307F00F23A8E1803E
:10043C001307200023AEE180B70701F083A7070064
:10044C0013F7F70FB707008023A8E77E83A7018275
:10045C00638C0700B707008083A7077F93F7F70F1C
:10046C0013850700EFF01FE5B707008083A7877F90
:10047C0063D00704B707008003A7077F93073005F5
:10048C006318F700B707008023AC077E6F00C0012C
:10049C00B707008003A7077F9307D0006316F70008
:1004AC0023AE01806F00C02123A601806F00402184
:1004BC00B707008003A7077F9307900063D0E7027C
:1004CC00B707008003A7077F9307D00063C8E70036
:1004DC001307100023AEE1806F00801E83A7C1803C
:1004EC001397470023A6E180B707008003A7077F77
:1004FC009307000663DCE700B707008083A7077F3C
:10050C00138707FEB707008023A8E77EB707008094
:10051C0003A7077F9307000463D0E702B7070080A7
:10052C0083A7077F138797FC83A7C1803367F700E6
:10053C0023A6E1806F00C001B707008083A7077F67
:10054C00138707FD83A7C1803367F70023A6E180DB
:10055C00B707008083A7877F13871700B707008032
:10056C0023ACE77EB707008003A7877F93071000B3
:10057C006314F70803A7C1809307600063D8E704EE
:10058C0003A7C1809307900063C2E704B70700F08C
:10059C0023A207006F008001B70701F083A70700B3
:1005AC0013870700B707008023A8E77EB70701F081
:1005BC0083A7470093D78701E39007FE83A7818128
:1005CC0037210080930000006780070003A7C180DB
:1005DC009307300063CAE70083A7C1809397170085
:1005EC001387570023A8E18023A60180130720005E
:1005FC0023AEE1806F00C00CB707008003A7877F94
:10060C00930730006310F70283A7C18093971700FC
:10061C0013872700B707008023AAE77E23A6018053
:10062C006F00000A03A701819307500063D4E70809
:10063C00B707008003A7877F83A701816314F702A4
:10064C0083A7C1801387070023AAE18083A7818138
:10065C006396070683A7C1801387070023ACE1804C
:10066C006F00C005B707008003A7877F83A70181B0
:10067C00E3D0E7D2B707008083A7877F93F71700F3
:10068C00E38807D0B707008003A7877FB7070080F0
:10069C0083A7477FE35EF7CE03A6C18083A7418182
:1006AC009386170023AAD1801377F60F2380E700D7
:1006BC006FF01FCE130000006FF09FCD13000000F1
:1006CC006FF01FCD130101FE232E1100232C81008E
:1006DC0013040102B70702F09387070183A70700F1
:1006EC0093F71700638A0702B727008083A70700D8
:1006FC00638C0700B727008083A707002324F4FE30
:10070C00832784FEE7800700B70702F09387070171
:10071C001307100023A0E700232604FE6F008009B6
:10072C00130710008327C4FEB317F7002322F4FE2F
:10073C008327C4FE13972700B727008093874700B1
:10074C00B307F70083A7070063800706B7070EF00F
:10075C009387070103A70700832744FEB377F700AD
:10076C00638407048327C4FE13972700B7270080F0
:10077C0093874700B307F70083A707002320F4FEF5
:10078C00832704FEE7800700B7070EF09387070165
:10079C0083A60700B7070EF093870701032744FED3
:1007AC0033E7E60023A0E7008327C4FE93871700F6
:1007BC002326F4FE0327C4FE9307F001E3D2E7F6E9
:1007CC00130000008320C1010324810113010102E5
:0407DC006780000032
:0907E0000D0A727633323E20004E
:0407EC000000000009
:040000058000000077
:00000001FF
